{
  "_format": "hh-sol-artifact-1",
  "contractName": "JobMarketplace",
  "sourceName": "contracts/JobMarketplace.sol",
  "abi": [
    {
      "inputs": [],
      "stateMutability": "nonpayable",
      "type": "constructor"
    },
    {
      "anonymous": false,
      "inputs": [
        {
          "indexed": false,
          "internalType": "uint256",
          "name": "jobId",
          "type": "uint256"
        },
        {
          "indexed": false,
          "internalType": "address",
          "name": "employer",
          "type": "address"
        },
        {
          "indexed": false,
          "internalType": "address",
          "name": "freelancer",
          "type": "address"
        }
      ],
      "name": "JobAccepted",
      "type": "event"
    },
    {
      "anonymous": false,
      "inputs": [
        {
          "indexed": false,
          "internalType": "uint256",
          "name": "jobId",
          "type": "uint256"
        },
        {
          "indexed": false,
          "internalType": "address",
          "name": "freelancer",
          "type": "address"
        }
      ],
      "name": "JobApplied",
      "type": "event"
    },
    {
      "anonymous": false,
      "inputs": [
        {
          "indexed": false,
          "internalType": "uint256",
          "name": "jobId",
          "type": "uint256"
        },
        {
          "indexed": false,
          "internalType": "address",
          "name": "freelancer",
          "type": "address"
        }
      ],
      "name": "JobCompleted",
      "type": "event"
    },
    {
      "anonymous": false,
      "inputs": [
        {
          "indexed": false,
          "internalType": "uint256",
          "name": "jobId",
          "type": "uint256"
        },
        {
          "indexed": false,
          "internalType": "address",
          "name": "employer",
          "type": "address"
        },
        {
          "indexed": false,
          "internalType": "address",
          "name": "freelancer",
          "type": "address"
        }
      ],
      "name": "JobInConflict",
      "type": "event"
    },
    {
      "anonymous": false,
      "inputs": [
        {
          "indexed": false,
          "internalType": "uint256",
          "name": "jobId",
          "type": "uint256"
        },
        {
          "indexed": false,
          "internalType": "address",
          "name": "freelancer",
          "type": "address"
        }
      ],
      "name": "JobInReview",
      "type": "event"
    },
    {
      "anonymous": false,
      "inputs": [
        {
          "indexed": false,
          "internalType": "uint256",
          "name": "jobId",
          "type": "uint256"
        },
        {
          "indexed": false,
          "internalType": "address",
          "name": "employer",
          "type": "address"
        },
        {
          "indexed": false,
          "internalType": "string",
          "name": "description",
          "type": "string"
        },
        {
          "indexed": false,
          "internalType": "uint256",
          "name": "payment",
          "type": "uint256"
        }
      ],
      "name": "JobPosted",
      "type": "event"
    },
    {
      "anonymous": false,
      "inputs": [
        {
          "indexed": false,
          "internalType": "uint256",
          "name": "jobId",
          "type": "uint256"
        },
        {
          "indexed": false,
          "internalType": "string",
          "name": "result",
          "type": "string"
        }
      ],
      "name": "JobResolved",
      "type": "event"
    },
    {
      "inputs": [
        {
          "internalType": "uint256",
          "name": "_jobId",
          "type": "uint256"
        },
        {
          "internalType": "address payable",
          "name": "_freelancer",
          "type": "address"
        }
      ],
      "name": "acceptFreelancer",
      "outputs": [],
      "stateMutability": "nonpayable",
      "type": "function"
    },
    {
      "inputs": [],
      "name": "applicationCounter",
      "outputs": [
        {
          "internalType": "uint256",
          "name": "",
          "type": "uint256"
        }
      ],
      "stateMutability": "view",
      "type": "function"
    },
    {
      "inputs": [
        {
          "internalType": "uint256",
          "name": "",
          "type": "uint256"
        }
      ],
      "name": "applicationIds",
      "outputs": [
        {
          "internalType": "uint256",
          "name": "",
          "type": "uint256"
        }
      ],
      "stateMutability": "view",
      "type": "function"
    },
    {
      "inputs": [
        {
          "internalType": "uint256",
          "name": "_jobId",
          "type": "uint256"
        },
        {
          "internalType": "string",
          "name": "_applicationDescription",
          "type": "string"
        }
      ],
      "name": "applyForJob",
      "outputs": [],
      "stateMutability": "nonpayable",
      "type": "function"
    },
    {
      "inputs": [
        {
          "internalType": "uint256",
          "name": "_jobId",
          "type": "uint256"
        }
      ],
      "name": "completeJob",
      "outputs": [],
      "stateMutability": "nonpayable",
      "type": "function"
    },
    {
      "inputs": [
        {
          "internalType": "uint256",
          "name": "_jobId",
          "type": "uint256"
        },
        {
          "internalType": "string",
          "name": "_freelancerConflictDescription",
          "type": "string"
        }
      ],
      "name": "freelancerSubmitConflictDescription",
      "outputs": [],
      "stateMutability": "nonpayable",
      "type": "function"
    },
    {
      "inputs": [],
      "name": "getAllJobsIds",
      "outputs": [
        {
          "internalType": "uint256[]",
          "name": "",
          "type": "uint256[]"
        }
      ],
      "stateMutability": "view",
      "type": "function"
    },
    {
      "inputs": [
        {
          "internalType": "uint256",
          "name": "_applicationId",
          "type": "uint256"
        }
      ],
      "name": "getApplicationDetails",
      "outputs": [
        {
          "internalType": "uint256",
          "name": "",
          "type": "uint256"
        },
        {
          "internalType": "address",
          "name": "",
          "type": "address"
        },
        {
          "internalType": "string",
          "name": "",
          "type": "string"
        },
        {
          "internalType": "uint256",
          "name": "",
          "type": "uint256"
        }
      ],
      "stateMutability": "view",
      "type": "function"
    },
    {
      "inputs": [],
      "name": "getApplicationsIds",
      "outputs": [
        {
          "internalType": "uint256[]",
          "name": "",
          "type": "uint256[]"
        }
      ],
      "stateMutability": "view",
      "type": "function"
    },
    {
      "inputs": [
        {
          "internalType": "address",
          "name": "_user",
          "type": "address"
        }
      ],
      "name": "getAppliedJobs",
      "outputs": [
        {
          "internalType": "uint256[]",
          "name": "",
          "type": "uint256[]"
        }
      ],
      "stateMutability": "view",
      "type": "function"
    },
    {
      "inputs": [
        {
          "internalType": "address",
          "name": "_user",
          "type": "address"
        }
      ],
      "name": "getCompletedJobs",
      "outputs": [
        {
          "internalType": "uint256[]",
          "name": "",
          "type": "uint256[]"
        }
      ],
      "stateMutability": "view",
      "type": "function"
    },
    {
      "inputs": [
        {
          "internalType": "address",
          "name": "_freelancer",
          "type": "address"
        }
      ],
      "name": "getFreelancerCompletedJobs",
      "outputs": [
        {
          "internalType": "uint256[]",
          "name": "",
          "type": "uint256[]"
        }
      ],
      "stateMutability": "view",
      "type": "function"
    },
    {
      "inputs": [
        {
          "internalType": "uint256",
          "name": "_jobId",
          "type": "uint256"
        }
      ],
      "name": "getJobDetails",
      "outputs": [
        {
          "internalType": "uint256",
          "name": "",
          "type": "uint256"
        },
        {
          "internalType": "address",
          "name": "",
          "type": "address"
        },
        {
          "internalType": "string",
          "name": "",
          "type": "string"
        },
        {
          "internalType": "string",
          "name": "",
          "type": "string"
        },
        {
          "internalType": "uint256",
          "name": "",
          "type": "uint256"
        },
        {
          "internalType": "string",
          "name": "",
          "type": "string"
        },
        {
          "internalType": "address",
          "name": "",
          "type": "address"
        },
        {
          "internalType": "uint256",
          "name": "",
          "type": "uint256"
        },
        {
          "internalType": "uint256[]",
          "name": "",
          "type": "uint256[]"
        },
        {
          "internalType": "uint256",
          "name": "",
          "type": "uint256"
        },
        {
          "internalType": "uint256",
          "name": "",
          "type": "uint256"
        },
        {
          "internalType": "string",
          "name": "",
          "type": "string"
        },
        {
          "internalType": "string",
          "name": "",
          "type": "string"
        }
      ],
      "stateMutability": "view",
      "type": "function"
    },
    {
      "inputs": [
        {
          "internalType": "address",
          "name": "_user",
          "type": "address"
        }
      ],
      "name": "getPostedJobs",
      "outputs": [
        {
          "internalType": "uint256[]",
          "name": "",
          "type": "uint256[]"
        }
      ],
      "stateMutability": "view",
      "type": "function"
    },
    {
      "inputs": [
        {
          "internalType": "address",
          "name": "_user",
          "type": "address"
        }
      ],
      "name": "getUserDetails",
      "outputs": [
        {
          "internalType": "string",
          "name": "",
          "type": "string"
        },
        {
          "internalType": "uint256[]",
          "name": "",
          "type": "uint256[]"
        },
        {
          "internalType": "uint256[]",
          "name": "",
          "type": "uint256[]"
        },
        {
          "internalType": "uint256[]",
          "name": "",
          "type": "uint256[]"
        }
      ],
      "stateMutability": "view",
      "type": "function"
    },
    {
      "inputs": [
        {
          "internalType": "uint256",
          "name": "_jobId",
          "type": "uint256"
        },
        {
          "internalType": "address",
          "name": "_user",
          "type": "address"
        }
      ],
      "name": "hasReviewed",
      "outputs": [
        {
          "internalType": "bool",
          "name": "",
          "type": "bool"
        }
      ],
      "stateMutability": "view",
      "type": "function"
    },
    {
      "inputs": [
        {
          "internalType": "uint256",
          "name": "_jobId",
          "type": "uint256"
        },
        {
          "internalType": "address",
          "name": "_user",
          "type": "address"
        }
      ],
      "name": "hasVotedForFreelancer",
      "outputs": [
        {
          "internalType": "bool",
          "name": "",
          "type": "bool"
        }
      ],
      "stateMutability": "view",
      "type": "function"
    },
    {
      "inputs": [
        {
          "internalType": "string",
          "name": "a",
          "type": "string"
        },
        {
          "internalType": "string",
          "name": "b",
          "type": "string"
        }
      ],
      "name": "isEqualString",
      "outputs": [
        {
          "internalType": "bool",
          "name": "",
          "type": "bool"
        }
      ],
      "stateMutability": "pure",
      "type": "function"
    },
    {
      "inputs": [
        {
          "internalType": "uint256",
          "name": "_jobId",
          "type": "uint256"
        },
        {
          "internalType": "address",
          "name": "_user",
          "type": "address"
        }
      ],
      "name": "isOutsider",
      "outputs": [
        {
          "internalType": "bool",
          "name": "",
          "type": "bool"
        }
      ],
      "stateMutability": "view",
      "type": "function"
    },
    {
      "inputs": [
        {
          "internalType": "uint256",
          "name": "",
          "type": "uint256"
        }
      ],
      "name": "jobApplicationById",
      "outputs": [
        {
          "internalType": "uint256",
          "name": "id",
          "type": "uint256"
        },
        {
          "internalType": "address payable",
          "name": "freelancer",
          "type": "address"
        },
        {
          "internalType": "string",
          "name": "applicationDescription",
          "type": "string"
        },
        {
          "internalType": "uint256",
          "name": "timestamp",
          "type": "uint256"
        }
      ],
      "stateMutability": "view",
      "type": "function"
    },
    {
      "inputs": [
        {
          "internalType": "uint256",
          "name": "",
          "type": "uint256"
        },
        {
          "internalType": "uint256",
          "name": "",
          "type": "uint256"
        }
      ],
      "name": "jobApplicationsByJobId",
      "outputs": [
        {
          "internalType": "uint256",
          "name": "id",
          "type": "uint256"
        },
        {
          "internalType": "address payable",
          "name": "freelancer",
          "type": "address"
        },
        {
          "internalType": "string",
          "name": "applicationDescription",
          "type": "string"
        },
        {
          "internalType": "uint256",
          "name": "timestamp",
          "type": "uint256"
        }
      ],
      "stateMutability": "view",
      "type": "function"
    },
    {
      "inputs": [],
      "name": "jobCounter",
      "outputs": [
        {
          "internalType": "uint256",
          "name": "",
          "type": "uint256"
        }
      ],
      "stateMutability": "view",
      "type": "function"
    },
    {
      "inputs": [
        {
          "internalType": "uint256",
          "name": "",
          "type": "uint256"
        }
      ],
      "name": "jobIds",
      "outputs": [
        {
          "internalType": "uint256",
          "name": "",
          "type": "uint256"
        }
      ],
      "stateMutability": "view",
      "type": "function"
    },
    {
      "inputs": [
        {
          "internalType": "uint256",
          "name": "",
          "type": "uint256"
        }
      ],
      "name": "jobs",
      "outputs": [
        {
          "internalType": "uint256",
          "name": "id",
          "type": "uint256"
        },
        {
          "internalType": "address payable",
          "name": "employer",
          "type": "address"
        },
        {
          "internalType": "string",
          "name": "description",
          "type": "string"
        },
        {
          "internalType": "string",
          "name": "title",
          "type": "string"
        },
        {
          "internalType": "string",
          "name": "ownerConflictDescription",
          "type": "string"
        },
        {
          "internalType": "string",
          "name": "freelancerConflictDescription",
          "type": "string"
        },
        {
          "internalType": "uint256",
          "name": "payment",
          "type": "uint256"
        },
        {
          "internalType": "string",
          "name": "status",
          "type": "string"
        },
        {
          "internalType": "address payable",
          "name": "freelancer",
          "type": "address"
        },
        {
          "internalType": "uint256",
          "name": "timestamp",
          "type": "uint256"
        },
        {
          "internalType": "uint256",
          "name": "freelancerVotes",
          "type": "uint256"
        },
        {
          "internalType": "uint256",
          "name": "employerVotes",
          "type": "uint256"
        }
      ],
      "stateMutability": "view",
      "type": "function"
    },
    {
      "inputs": [
        {
          "internalType": "uint256",
          "name": "_jobId",
          "type": "uint256"
        },
        {
          "internalType": "string",
          "name": "_ownerConflictDescription",
          "type": "string"
        }
      ],
      "name": "markJobInConflict",
      "outputs": [],
      "stateMutability": "nonpayable",
      "type": "function"
    },
    {
      "inputs": [
        {
          "internalType": "uint256",
          "name": "_jobId",
          "type": "uint256"
        }
      ],
      "name": "markJobInReview",
      "outputs": [],
      "stateMutability": "nonpayable",
      "type": "function"
    },
    {
      "inputs": [],
      "name": "owner",
      "outputs": [
        {
          "internalType": "address",
          "name": "",
          "type": "address"
        }
      ],
      "stateMutability": "view",
      "type": "function"
    },
    {
      "inputs": [
        {
          "internalType": "string",
          "name": "_description",
          "type": "string"
        },
        {
          "internalType": "string",
          "name": "_title",
          "type": "string"
        }
      ],
      "name": "postJob",
      "outputs": [],
      "stateMutability": "payable",
      "type": "function"
    },
    {
      "inputs": [
        {
          "internalType": "string",
          "name": "_name",
          "type": "string"
        }
      ],
      "name": "registerUser",
      "outputs": [],
      "stateMutability": "nonpayable",
      "type": "function"
    },
    {
      "inputs": [
        {
          "internalType": "uint256",
          "name": "_jobId",
          "type": "uint256"
        },
        {
          "internalType": "bool",
          "name": "voteForFreelancer",
          "type": "bool"
        }
      ],
      "name": "reviewJobInConflict",
      "outputs": [],
      "stateMutability": "nonpayable",
      "type": "function"
    },
    {
      "inputs": [
        {
          "internalType": "address",
          "name": "",
          "type": "address"
        }
      ],
      "name": "users",
      "outputs": [
        {
          "internalType": "string",
          "name": "name",
          "type": "string"
        }
      ],
      "stateMutability": "view",
      "type": "function"
    }
  ],
  "bytecode": "0x6080806040523461002857600480546001600160a01b0319163317905561255d908161002e8239f35b600080fdfe6040608081526004908136101561001557600080fd5b600091823560e01c8063180aedf314611b9a578063304cdd32146119cd5780633baf54ea146118be5780634162cc881461187157806345eccc7214610b6f5780634cac35c61461173b57806350355d761461171c578063648d6320146116f15780636c09a5e3146114d5578063704f1b94146113c85780637177bce91461134b57806373a1dcf61461122f5780637b082b4a146111a35780637c7198cc1461115b5780638da5cb5b14611134578063a01e567614610cc9578063a1c0d32f14610bc9578063a87430ba14610b7b578063acf8cd6d14610b6f578063b27b406714610b50578063b30c62e114610b03578063b5228c4814610ad3578063b6bc030414610a8b578063cc3d967b146109bc578063ce26ae851461096a578063d070bedb146103e9578063d4aa738014610374578063d568af0a14610333578063db144d0114610310578063e9f5aa58146101ea5763fbcbb3b214610177575b600080fd5b346101e657816003193601126101e65760243590358352600160205281832080548210156101e257906101a991612028565b50805460018201546001600160a01b03169290916101de919060036101d060028301611d5d565b910154915194859485611ff9565b0390f35b8380fd5b8280fd5b50346101e657816003193601126101e6576001600160a01b039190356024358381169081900361030c577f8ae465414c00fb9483fd14ea2bc6532d5a0eaec16f65ba0dd1d4325b67d9aa2e936103069183875286602052610254826001878a200154163314612394565b338752600360205261027261026b86892054611cb3565b151561216c565b83875286602052848720600860078201916102a56102a061029285611d5d565b61029a61222d565b90612093565b61224d565b01916001600160601b0360a01b8354161782556102cb6102c58254611cb3565b826120ff565b60166a494e5f50524f475245535360a81b0190555493519283523360208401529092166001600160a01b031660408201529081906060820190565b0390a180f35b8480fd5b50503461032f578160031936011261032f576020906007549051908152f35b5080fd5b50346101e65760203660031901126101e657918192358152600260205220906101de82549160018060a01b036001850154169360036101d060028301611d5d565b50346101e65760203660031901126101e6579181923581526002602052206101de82516103a081611ced565b8254815260018301546001600160a01b0390811660208301908152939060036103cb60028401611d5d565b92838886015201549283606082015251945116945194859485611ff9565b5090346101e657806003193601126101e6578135916024803591821515928381036109665733875260039060209482865261042961026b888b2054611cb3565b87895288865286892061044961044160078301611d5d565b61029a612495565b156109245760018181015490936001600160a01b039391841633146108ea578360088401541633146108a857338c52600d8301808a528a8d205460ff9695949392908716610865578d9291901561085057600b84016104a881546121ae565b90555b3383528a52858b8084209360ff19948886825416179055600e86018d5220928354169116179055600f8101805490600160401b82101561083e57906104f4918582018155611ed5565b815490871b9084821b809233901b16911916179055600c600b820154910154810180911161082c57600b14610527578980f35b888a52898752878a2095600687015490605f820296821597838104605f1489171561081a5760649004976005840293840460051417156108095750508a8080606481940498600b8b0154600c8c0154106000146106da578560088c0154168282156106d1575bf1156106c757819493898b528a88526105ae898c2095600b870154906124bc565b948b600e600f83019201945b610644575b5050505050505050826080937f788248c8498acaf9cdf3abe7b6e14a5995257edb7edd1f86062d372af56bf0fd95936007600f94016106016102c58254611cb3565b601067434f4d504c45544560c01b01905581519485528401528201526e467265656c616e6365722057696e7360881b6060820152a15b3880808080808080808980f35b8c82548210156106c157878b888e898961065e888a611ed5565b9054908b1b1c1693848752528420541680156106ba575b61068c575b505050610686906121ae565b876105ba565b82809281928282156106b1575bf1156106a7578c873861067a565b8a513d8e823e3d90fd5b506108fc610699565b5082610675565b506105bf565b87513d8b823e3d90fd5b506108fc61058d565b85878c015416828215610800575bf1156106c757819493898b528a8852610709898c2095600c870154906124bc565b948b600e600f83019201945b610794575b5050505050505050826080937f788248c8498acaf9cdf3abe7b6e14a5995257edb7edd1f86062d372af56bf0fd95936007600d940161075c6102c58254611cb3565b601067434f4d504c45544560c01b01905581519485528401528201526c456d706c6f7965722057696e7360981b6060820152a1610637565b8c82548210156107fa57878b888e89896107ae888a611ed5565b9054908b1b1c16938487525284205416156107d6575b5050506107d0906121ae565b87610715565b82809281928282156107f1575bf1156106a7578c87386107c4565b506108fc6107e3565b5061071a565b506108fc6106e8565b634e487b7160e01b8d52601190528bfd5b50634e487b7160e01b8d52601190528bfd5b634e487b7160e01b8b5260118652868bfd5b634e487b7160e01b8d5260418852888dfd5b600c840161085e81546121ae565b90556104ab565b508a5162461bcd60e51b81528089018b90526017818b01527f596f75206861766520616c726561647920766f7465642e0000000000000000006044820152606490fd5b895162461bcd60e51b81528088018a90526017818a01527f467265656c616e6365722063616e6e6f7420766f74652e0000000000000000006044820152606490fd5b895162461bcd60e51b81528088018a90526015818a01527422b6b83637bcb2b91031b0b73737ba103b37ba329760591b6044820152606490fd5b875162461bcd60e51b81528086018890526017818801527f4a6f62206973206e6f7420696e20636f6e666c6963742e0000000000000000006044820152606490fd5b8680fd5b50503461032f57602036600319011261032f576101de916109a99060029083906001600160a01b0361099a611f19565b16815260036020522001612044565b9051918291602083526020830190611f2f565b50503461032f57602036600319011261032f57610a62916101de9082906001600160a01b036109e9611f19565b16815260036020522091610a7d815191610a0283611ced565b610a0b85611d5d565b8352610a1960018601612044565b9460208401958652610a70610a426003610a3560028501612044565b9385880194855201612044565b94856060820152519651915191835198899860808a5260808a0190611e26565b9088820360208a0152611f2f565b9186830390870152611f2f565b908382036060850152611f2f565b50346101e657816003193601126101e6578160209360ff92610aab611f03565b903582528186528282206001600160a01b039091168252600e01855220549151911615158152f35b50503461032f57602036600319011261032f576101de916109a99060019083906001600160a01b0361099a611f19565b50346101e65760203660031901126101e657356008548110156101e6576008602093527ff3f7a9fe364faab93b216da50a3214154f22a0a2b415b23a84c8169e8b636ee301549051908152f35b50503461032f57602090610b6661029a36611fb5565b90519015158152f35b50505050610172611f63565b50503461032f57602036600319011261032f576101de91610bb69082906001600160a01b03610ba8611f19565b168152600360205220611d5d565b9051918291602083526020830190611e26565b50346101e65760203660031901126101e65735908183528260205260018060a01b0391610bff8360018487200154163314612394565b80845283602052818420926007840193610c2b610c26610c1e87611d5d565b61029a6123e0565b612405565b85808080600885019460068787541691015490828215610cc0575bf115610cb65784610c7b6102c57f16a7286196330eaff0c7db2ec34ead9c6d2d023b356b62ee7ea644c842a84b679754611cb3565b601067434f4d504c45544560c01b0190558181541686526003602052610ca6836003868920016121f6565b541682519182526020820152a180f35b83513d87823e3d90fd5b506108fc610c46565b509190610cd536611fb5565b3384526003602090808252610cef61026b86882054611cb3565b8351156110f35734156110a557610d076005546121ae565b91826005558287528681528587209283556001928381016001600160601b0360a01b903382825416179055600282019587519667ffffffffffffffff9788811161102757610d5f81610d598454611cb3565b84612127565b80868d601f8311600114611045579161103a575b5060001982891b1c191690881b1790555b805183860191888211611027578190610da782610da18654611cb3565b86612127565b86908d601f8411600114610fc95792610fbe575b505060001982881b1c191690871b1790555b34600683015560078201610de46102c58254611cb3565b60086327a822a760e11b019055600882019081541690554260098201556000898201610e136102c58254611cb3565b55600060058201610e276102c58254611cb3565b55600a810194606051818111610f8657600160401b96878211610fab57610e53828254818455836121d3565b6080908b52848b20878c5b848110610f99575050505050600f8201606051918211610f8657868211610f86579081610e92828c959454818455836121d3565b608090845284842087855b848110610f685750505050508082600b600c93015501556005549360065490811015610f555783810180600655811015610f425791610f2d9391857fd347156c0e050f531434f3eac5fc2137040ab077ca656f465275ebe566aaf115989796947ff652222313e28459528d920b65115c16c04f3efc82aaedc97be59f3f377c0d3f015533895252848720016121f6565b61030660055492519283923491339085611ff9565b634e487b7160e01b885260328952602488fd5b634e487b7160e01b885260418952602488fd5b83516001600160a01b0316838201558d965092870192899101610e9d565b634e487b7160e01b8a5260418b5260248afd5b87845194019381840155018890610e5e565b634e487b7160e01b8b5260418c5260248bfd5b015190503880610dbb565b91908a9450601f198416868452898420935b8a8282106110115750508411610ff9575b505050811b019055610dcd565b0151600019838a1b60f8161c19169055388080610fec565b8385015186558d97909501949384019301610fdb565b634e487b7160e01b8c5260418d5260248cfd5b90508a015138610d73565b8481528881208b94509190601f198416908a8f5b83831061108e575050508311611076575b5050811b019055610d84565b8c0151600019838b1b60f8161c19169055388061106a565b84015185558d969094019392830192018a8f611059565b845162461bcd60e51b8152808801839052602260248201527f5061796d656e74206d7573742062652067726561746572207468616e207a6572604482015261379760f11b6064820152608490fd5b606487838088519262461bcd60e51b845283015260248201527f4a6f62206465736372697074696f6e2063616e6e6f7420626520656d7074792e6044820152fd5b50346101e657826003193601126101e6575490516001600160a01b03909116815260209150f35b50346101e657816003193601126101e6578160209360ff9261117b611f03565b903582528186528282206001600160a01b039091168252600d01855220549151911615158152f35b50503461032f578160031936011261032f5780519081809360065490818552602080950191600682527ff652222313e28459528d920b65115c16c04f3efc82aaedc97be59f3f377c0d3f915b868282106112185785906101de8861120984890385611d3b565b51928284938452830190611f2f565b8354855288955090930192600192830192016111ef565b5090346101e65760203660031901126101e6578135918284528360205261126560018060a01b0360088487200154163314612449565b82845283602052600782852001906112a861127f83611d5d565b84519061128b82611d1f565b600b82526a494e5f50524f475245535360a81b6020830152612093565b1561130857509161030691836112e26102c57f4835c9b38b8343e395fff393fbcd45b18b711add651dbbe37b2ea2243d0e12749654611cb3565b601268494e5f52455649455760b81b019055519081523360208201529081906040820190565b606490602084519162461bcd60e51b8352820152601760248201527f4a6f62206973206e6f7420696e2070726f67726573732e0000000000000000006044820152fd5b50503461032f578160031936011261032f5780519081809360085490818552602080950191600882527ff3f7a9fe364faab93b216da50a3214154f22a0a2b415b23a84c8169e8b636ee3915b868282106113b15785906101de8861120984890385611d3b565b835485528895509093019260019283019201611397565b5082903461032f576020806003193601126101e65767ffffffffffffffff90823582811161030c576113fd9036908501611e4b565b943385526003825284209285519283116114c25750611426826114208554611cb3565b85612127565b80601f83116001146114605750839482939492611455575b50508160011b916000199060031b1c191617905580f35b01519050848061143e565b90601f198316958486528286209286905b8882106114aa57505083600195969710611491575b505050811b01905580f35b015160001960f88460031b161c19169055848080611486565b80600185968294968601518155019501930190611471565b634e487b7160e01b855260419052602484fd5b5091903461032f576114e636611ea2565b91909133845260206003815261150161026b84872054611cb3565b8385528481528285209160079261151f6102a0610292868401611d5d565b600101546001600160a01b031633146116a05782549084519161154183611ced565b825233838301528482015242606082015284865260018252838620908154600160401b928382101561168d579061157d91600182018155612028565b61167b579061158f8161159f9361228c565b845488526002845285882061228c565b8486528582526115b6600a858820018454906121f6565b825490600854908110156116685760018101806008558110156116555761030694927fffa837d183240a5f25cbd643a8eade702c0c9c3e186c59c7d929e4f1a3438d869694926003927ff3f7a9fe364faab93b216da50a3214154f22a0a2b415b23a84c8169e8b636ee3015533885252611635836002848920016121f6565b61163f81546121ae565b9055519081523360208201529081906040820190565b634e487b7160e01b875260328852602487fd5b634e487b7160e01b875260418852602487fd5b634e487b7160e01b8852878952602488fd5b634e487b7160e01b895260418a52602489fd5b835162461bcd60e51b8152808801839052602560248201527f4f776e65722063616e6e6f74206170706c7920666f72207468656972206f776e604482015264103537b11760d91b6064820152608490fd5b50913461171957816003193601126117195750610b66602092611712611f03565b90356124dc565b80fd5b50503461032f578160031936011261032f576020906005549051908152f35b50913461171957602036600319011261171957819083358152806020522090815491600160a01b6001900393846001830154169460068301549060088401541691600984015492600b85015493600c860154936002870161179b90611d5d565b906117a860038901611d5d565b6117b460078a01611d5d565b926117c1600a8b01612044565b968a016117cd90611d5d565b996005016117da90611d5d565b9a80519d8e809e8152602001528c6101a091829101528c016117fb91611e26565b8b810360608d015261180c91611e26565b9060808b015289810360a08b015261182391611e26565b9160c089015260e088015286810361010088015261184091611f2f565b9161012086015261014085015283810361016085015261185f91611e26565b8281036101808401526101de91611e26565b50346101e65760203660031901126101e657356006548110156101e6576006602093527ff652222313e28459528d920b65115c16c04f3efc82aaedc97be59f3f377c0d3f01549051908152f35b5091903461032f576005926118d236611ea2565b9490928385526020938585526118f760018060a01b0360088489200154163314612449565b85528484528420611910610c2661044160078401611d5d565b019184519167ffffffffffffffff83116114c25750611933826114208554611cb3565b80601f831160011461196c57508394829394926119615750508160011b916000199060031b1c191617905580f35b01519050388061143e565b90601f198316958486528286209286905b8882106119b55750508360019596971061199c57505050811b01905580f35b015160001960f88460031b161c19169055388080611486565b8060018596829496860151815501950193019061197d565b5091903461032f576119de36611ea2565b81845260209084825260018060a01b03956001611a038882888a200154163314612394565b8487528684528587209360078501611a20610c26610c1e83611d5d565b611a2d6102c58254611cb3565b60166a125397d0d3d391931250d560aa1b019055835185840194909367ffffffffffffffff8511611b875750611a6d84611a678754611cb3565b87612127565b81601f8511600114611af6575092808061030697948b9c97946008977f8a26fc43e98708fd755cc49766bd1d9fd3604d40b63d2918d2976dd77a9d316b9d94611aeb575b50501b916000199060031b1c19161790555b015493519283523360208401529092166001600160a01b031660408201529081906060820190565b015192503880611ab1565b9190601f949394198416868b52838b20938b905b828210611b705750509260089592859261030699967f8a26fc43e98708fd755cc49766bd1d9fd3604d40b63d2918d2976dd77a9d316b9d9e999610611b57575b505050811b019055611ac3565b015160001960f88460031b161c19169055388080611b4a565b808886978294978701518155019601940190611b0a565b634e487b7160e01b8a5260419052602489fd5b50913461171957602036600319011261171957823581526020819052819020805460018201546001600160a01b03908116949193919290611bdd60028301611d5d565b90611bea60038401611d5d565b948301611bf690611d5d565b611c0260058501611d5d565b600685015491611c1460078701611d5d565b9360088701541697600987015495600b88015497600c01549880519c8d9c8d5260208d015261018080918d01528b01611c4c91611e26565b8a810360608c0152611c5d91611e26565b89810360808b0152611c6e91611e26565b88810360a08a0152611c7f91611e26565b9060c088015286810360e0880152611c9691611e26565b936101008601526101208501526101408401526101608301520390f35b90600182811c92168015611ce3575b6020831014611ccd57565b634e487b7160e01b600052602260045260246000fd5b91607f1691611cc2565b6080810190811067ffffffffffffffff821117611d0957604052565b634e487b7160e01b600052604160045260246000fd5b6040810190811067ffffffffffffffff821117611d0957604052565b90601f8019910116810190811067ffffffffffffffff821117611d0957604052565b9060405191826000825492611d7184611cb3565b908184526001948581169081600014611de05750600114611d9d575b5050611d9b92500383611d3b565b565b9093915060005260209081600020936000915b818310611dc8575050611d9b93508201013880611d8d565b85548884018501529485019487945091830191611db0565b915050611d9b94506020925060ff191682840152151560051b8201013880611d8d565b60005b838110611e165750506000910152565b8181015183820152602001611e06565b90602091611e3f81518092818552858086019101611e03565b601f01601f1916010190565b81601f820112156101725780359067ffffffffffffffff8211611d095760405192611e80601f8401601f191660200185611d3b565b8284526020838301011161017257816000926020809301838601378301015290565b90604060031983011261017257600435916024359067ffffffffffffffff821161017257611ed291600401611e4b565b90565b8054821015611eed5760005260206000200190600090565b634e487b7160e01b600052603260045260246000fd5b602435906001600160a01b038216820361017257565b600435906001600160a01b038216820361017257565b90815180825260208080930193019160005b828110611f4f575050505090565b835185529381019392810192600101611f41565b5034610172576020366003190112610172576001600160a01b03611f85611f19565b1660005260036020526101de611fa16003604060002001612044565b604051918291602083526020830190611f2f565b9060406003198301126101725767ffffffffffffffff6004358181116101725783611fe291600401611e4b565b9260243591821161017257611ed291600401611e4b565b94939260609261202392875260018060a01b03166020870152608060408701526080860190611e26565b930152565b8054821015611eed5760005260206000209060021b0190600090565b9060405191828154918282526020928383019160005283600020936000905b82821061207957505050611d9b92500383611d3b565b855484526001958601958895509381019390910190612063565b90604051916020926120c18482816120b48183019687815193849201611e03565b8101038084520182611d3b565b519020916120e16040519182816120b48183019687815193849201611e03565b5190201490565b8181106120f3575050565b600081556001016120e8565b90601f811161210c575050565b611d9b91600052601f6020600020910160051c8101906120e8565b9190601f811161213657505050565b611d9b926000526020600020906020601f840160051c83019310612162575b601f0160051c01906120e8565b9091508190612155565b1561217357565b60405162461bcd60e51b8152602060048201526013602482015272155cd95c881b9bdd081c9959da5cdd195c9959606a1b6044820152606490fd5b60001981146121bd5760010190565b634e487b7160e01b600052601160045260246000fd5b918181106121e057505050565b611d9b92600052602060002091820191016120e8565b8054600160401b811015611d095761221391600182018155611ed5565b819291549060031b600019811b9283911b16911916179055565b6040519061223a82611d1f565b600482526327a822a760e11b6020830152565b1561225457565b60405162461bcd60e51b815260206004820152601060248201526f2537b11034b9903737ba1037b832b71760811b6044820152606490fd5b908051825560019081830160209060018060a01b0382840151166001600160601b0360a01b825416179055600284019060408301519384519167ffffffffffffffff8311611d09576122e283610da18654611cb3565b80601f8411600114612326575091808092606096959460039860009461231b575b50501b9160001990871b1c19161790555b0151910155565b015192503880612303565b91939495601f1984168660005283600020936000905b82821061237d5750509160039795939185606098969410612365575b505050811b019055612314565b015160001983891b60f8161c19169055388080612358565b80888697829497870151815501960194019061233c565b1561239b57565b60405162461bcd60e51b815260206004820152601c60248201527f4f6e6c7920656d706c6f7965722063616e2063616c6c20746869732e000000006044820152606490fd5b604051906123ed82611d1f565b6009825268494e5f52455649455760b81b6020830152565b1561240c57565b60405162461bcd60e51b81526020600482015260156024820152742537b11034b9903737ba1034b7103932bb34b2bb9760591b6044820152606490fd5b1561245057565b60405162461bcd60e51b815260206004820152601e60248201527f4f6e6c7920667265656c616e6365722063616e2063616c6c20746869732e00006044820152606490fd5b604051906124a282611d1f565b600b82526a125397d0d3d391931250d560aa1b6020830152565b81156124c6570490565b634e487b7160e01b600052601260045260246000fd5b600052600060205260406000209060018060a01b0380806001850154169216809214928315612517575b50505061251257600190565b600090565b600801541614905038808061250656fea264697066735822122041dbaf0e3b776381088aa5b35cc46e953fde233220382773e96823bcaf871fad64736f6c63430008110033",
  "linkReferences": {},
  "deployedLinkReferences": {}
}